{
  "_format": "hh-sol-artifact-1",
  "contractName": "PatientRecords",
  "sourceName": "contracts/PatientRecords.sol",
  "abi": [
    {
      "anonymous": false,
      "inputs": [
        {
          "indexed": true,
          "internalType": "address",
          "name": "patientAddress",
          "type": "address"
        },
        {
          "indexed": false,
          "internalType": "string",
          "name": "uniqueId",
          "type": "string"
        },
        {
          "indexed": false,
          "internalType": "string",
          "name": "phoneNumber",
          "type": "string"
        },
        {
          "indexed": false,
          "internalType": "string",
          "name": "condition",
          "type": "string"
        },
        {
          "indexed": false,
          "internalType": "string",
          "name": "transactionHash",
          "type": "string"
        }
      ],
      "name": "PatientAdded",
      "type": "event"
    },
    {
      "inputs": [
        {
          "internalType": "string",
          "name": "uniqueId",
          "type": "string"
        },
        {
          "internalType": "string",
          "name": "phoneNumber",
          "type": "string"
        },
        {
          "internalType": "string",
          "name": "condition",
          "type": "string"
        },
        {
          "internalType": "string",
          "name": "transactionHash",
          "type": "string"
        }
      ],
      "name": "addPatient",
      "outputs": [],
      "stateMutability": "nonpayable",
      "type": "function"
    },
    {
      "inputs": [
        {
          "internalType": "address",
          "name": "patientAddress",
          "type": "address"
        }
      ],
      "name": "getPatient",
      "outputs": [
        {
          "components": [
            {
              "internalType": "string",
              "name": "uniqueId",
              "type": "string"
            },
            {
              "internalType": "string",
              "name": "phoneNumber",
              "type": "string"
            },
            {
              "internalType": "string",
              "name": "condition",
              "type": "string"
            },
            {
              "internalType": "string",
              "name": "transactionHash",
              "type": "string"
            }
          ],
          "internalType": "struct PatientRecords.Patient",
          "name": "",
          "type": "tuple"
        }
      ],
      "stateMutability": "view",
      "type": "function"
    }
  ],
  "bytecode": "0x608060405234801561001057600080fd5b506109e8806100206000396000f3fe608060405234801561001057600080fd5b50600436106100365760003560e01c8063b5368e201461003b578063ff8e704f1461006b575b600080fd5b6100556004803603810190610050919061059f565b610087565b60405161006291906107d6565b60405180910390f35b610085600480360381019061008091906105c8565b610327565b005b61008f610457565b6000808373ffffffffffffffffffffffffffffffffffffffff1673ffffffffffffffffffffffffffffffffffffffff1681526020019081526020016000206040518060800160405290816000820180546100e8906108fa565b80601f0160208091040260200160405190810160405280929190818152602001828054610114906108fa565b80156101615780601f1061013657610100808354040283529160200191610161565b820191906000526020600020905b81548152906001019060200180831161014457829003601f168201915b5050505050815260200160018201805461017a906108fa565b80601f01602080910402602001604051908101604052809291908181526020018280546101a6906108fa565b80156101f35780601f106101c8576101008083540402835291602001916101f3565b820191906000526020600020905b8154815290600101906020018083116101d657829003601f168201915b5050505050815260200160028201805461020c906108fa565b80601f0160208091040260200160405190810160405280929190818152602001828054610238906108fa565b80156102855780601f1061025a57610100808354040283529160200191610285565b820191906000526020600020905b81548152906001019060200180831161026857829003601f168201915b5050505050815260200160038201805461029e906108fa565b80601f01602080910402602001604051908101604052809291908181526020018280546102ca906108fa565b80156103175780601f106102ec57610100808354040283529160200191610317565b820191906000526020600020905b8154815290600101906020018083116102fa57829003601f168201915b5050505050815250509050919050565b6040518060800160405280858152602001848152602001838152602001828152506000803373ffffffffffffffffffffffffffffffffffffffff1673ffffffffffffffffffffffffffffffffffffffff16815260200190815260200160002060008201518160000190805190602001906103a292919061047f565b5060208201518160010190805190602001906103bf92919061047f565b5060408201518160020190805190602001906103dc92919061047f565b5060608201518160030190805190602001906103f992919061047f565b509050503373ffffffffffffffffffffffffffffffffffffffff167f7e0a24c4a4a1fb325911be36d0b09c243df557e0b3a8ae812646b0e2aaf0b3fe858585856040516104499493929190610775565b60405180910390a250505050565b6040518060800160405280606081526020016060815260200160608152602001606081525090565b82805461048b906108fa565b90600052602060002090601f0160209004810192826104ad57600085556104f4565b82601f106104c657805160ff19168380011785556104f4565b828001600101855582156104f4579182015b828111156104f35782518255916020019190600101906104d8565b5b5090506105019190610505565b5090565b5b8082111561051e576000816000905550600101610506565b5090565b600061053561053084610829565b6107f8565b90508281526020810184848401111561054d57600080fd5b6105588482856108b8565b509392505050565b60008135905061056f8161099b565b92915050565b600082601f83011261058657600080fd5b8135610596848260208601610522565b91505092915050565b6000602082840312156105b157600080fd5b60006105bf84828501610560565b91505092915050565b600080600080608085870312156105de57600080fd5b600085013567ffffffffffffffff8111156105f857600080fd5b61060487828801610575565b945050602085013567ffffffffffffffff81111561062157600080fd5b61062d87828801610575565b935050604085013567ffffffffffffffff81111561064a57600080fd5b61065687828801610575565b925050606085013567ffffffffffffffff81111561067357600080fd5b61067f87828801610575565b91505092959194509250565b600061069682610859565b6106a08185610864565b93506106b08185602086016108c7565b6106b98161098a565b840191505092915050565b60006106cf82610859565b6106d98185610875565b93506106e98185602086016108c7565b6106f28161098a565b840191505092915050565b6000608083016000830151848203600086015261071a828261068b565b91505060208301518482036020860152610734828261068b565b9150506040830151848203604086015261074e828261068b565b91505060608301518482036060860152610768828261068b565b9150508091505092915050565b6000608082019050818103600083015261078f81876106c4565b905081810360208301526107a381866106c4565b905081810360408301526107b781856106c4565b905081810360608301526107cb81846106c4565b905095945050505050565b600060208201905081810360008301526107f081846106fd565b905092915050565b6000604051905081810181811067ffffffffffffffff8211171561081f5761081e61095b565b5b8060405250919050565b600067ffffffffffffffff8211156108445761084361095b565b5b601f19601f8301169050602081019050919050565b600081519050919050565b600082825260208201905092915050565b600082825260208201905092915050565b600061089182610898565b9050919050565b600073ffffffffffffffffffffffffffffffffffffffff82169050919050565b82818337600083830152505050565b60005b838110156108e55780820151818401526020810190506108ca565b838111156108f4576000848401525b50505050565b6000600282049050600182168061091257607f821691505b602082108114156109265761092561092c565b5b50919050565b7f4e487b7100000000000000000000000000000000000000000000000000000000600052602260045260246000fd5b7f4e487b7100000000000000000000000000000000000000000000000000000000600052604160045260246000fd5b6000601f19601f8301169050919050565b6109a481610886565b81146109af57600080fd5b5056fea2646970667358221220f38df178e3b9eaac5f2aae0e11c8996d961f954506c85ec047385277c95ec0ac64736f6c63430008000033",
  "linkReferences": {},
  "deployedLinkReferences": {}
}