{
  "_format": "hh-sol-artifact-1",
  "contractName": "PatientRegistration",
  "sourceName": "contracts/PatientRegistration.sol",
  "abi": [
    {
      "anonymous": false,
      "inputs": [
        {
          "indexed": false,
          "internalType": "string",
          "name": "uniqueId",
          "type": "string"
        },
        {
          "indexed": false,
          "internalType": "string",
          "name": "name",
          "type": "string"
        },
        {
          "indexed": false,
          "internalType": "uint256",
          "name": "age",
          "type": "uint256"
        },
        {
          "indexed": false,
          "internalType": "string",
          "name": "gender",
          "type": "string"
        },
        {
          "indexed": false,
          "internalType": "string",
          "name": "phone",
          "type": "string"
        },
        {
          "indexed": false,
          "internalType": "string",
          "name": "patientAddress",
          "type": "string"
        }
      ],
      "name": "PatientRegistered",
      "type": "event"
    },
    {
      "inputs": [
        {
          "internalType": "string",
          "name": "_uniqueId",
          "type": "string"
        },
        {
          "internalType": "string",
          "name": "_name",
          "type": "string"
        },
        {
          "internalType": "uint256",
          "name": "_age",
          "type": "uint256"
        },
        {
          "internalType": "string",
          "name": "_gender",
          "type": "string"
        },
        {
          "internalType": "string",
          "name": "_phone",
          "type": "string"
        },
        {
          "internalType": "string",
          "name": "_address",
          "type": "string"
        }
      ],
      "name": "addPatient",
      "outputs": [],
      "stateMutability": "nonpayable",
      "type": "function"
    },
    {
      "inputs": [
        {
          "internalType": "address",
          "name": "",
          "type": "address"
        }
      ],
      "name": "patients",
      "outputs": [
        {
          "internalType": "string",
          "name": "uniqueId",
          "type": "string"
        },
        {
          "internalType": "string",
          "name": "name",
          "type": "string"
        },
        {
          "internalType": "uint256",
          "name": "age",
          "type": "uint256"
        },
        {
          "internalType": "string",
          "name": "gender",
          "type": "string"
        },
        {
          "internalType": "string",
          "name": "phone",
          "type": "string"
        },
        {
          "internalType": "string",
          "name": "patientAddress",
          "type": "string"
        }
      ],
      "stateMutability": "view",
      "type": "function"
    }
  ],
  "bytecode": "0x608060405234801561001057600080fd5b506109ed806100206000396000f3fe608060405234801561001057600080fd5b50600436106100365760003560e01c80630869cfbc1461003b578063c140a2a014610070575b600080fd5b610055600480360381019061005091906105f7565b61008c565b60405161006796959493929190610769565b60405180910390f35b61008a60048036038101906100859190610620565b610370565b005b60006020528060005260406000206000915090508060000180546100af906108e8565b80601f01602080910402602001604051908101604052809291908181526020018280546100db906108e8565b80156101285780601f106100fd57610100808354040283529160200191610128565b820191906000526020600020905b81548152906001019060200180831161010b57829003601f168201915b50505050509080600101805461013d906108e8565b80601f0160208091040260200160405190810160405280929190818152602001828054610169906108e8565b80156101b65780601f1061018b576101008083540402835291602001916101b6565b820191906000526020600020905b81548152906001019060200180831161019957829003601f168201915b5050505050908060020154908060030180546101d1906108e8565b80601f01602080910402602001604051908101604052809291908181526020018280546101fd906108e8565b801561024a5780601f1061021f5761010080835404028352916020019161024a565b820191906000526020600020905b81548152906001019060200180831161022d57829003601f168201915b50505050509080600401805461025f906108e8565b80601f016020809104026020016040519081016040528092919081815260200182805461028b906108e8565b80156102d85780601f106102ad576101008083540402835291602001916102d8565b820191906000526020600020905b8154815290600101906020018083116102bb57829003601f168201915b5050505050908060050180546102ed906108e8565b80601f0160208091040260200160405190810160405280929190818152602001828054610319906108e8565b80156103665780601f1061033b57610100808354040283529160200191610366565b820191906000526020600020905b81548152906001019060200180831161034957829003601f168201915b5050505050905086565b6040518060c00160405280878152602001868152602001858152602001848152602001838152602001828152506000803373ffffffffffffffffffffffffffffffffffffffff1673ffffffffffffffffffffffffffffffffffffffff16815260200190815260200160002060008201518160000190805190602001906103f79291906104c2565b5060208201518160010190805190602001906104149291906104c2565b5060408201518160020155606082015181600301908051906020019061043b9291906104c2565b5060808201518160040190805190602001906104589291906104c2565b5060a08201518160050190805190602001906104759291906104c2565b509050507fcb5437c0aaec3db7c6cea25c232a1953dbe9da1202757237723dd63ced7202738686868686866040516104b296959493929190610769565b60405180910390a1505050505050565b8280546104ce906108e8565b90600052602060002090601f0160209004810192826104f05760008555610537565b82601f1061050957805160ff1916838001178555610537565b82800160010185558215610537579182015b8281111561053657825182559160200191906001019061051b565b5b5090506105449190610548565b5090565b5b80821115610561576000816000905550600101610549565b5090565b60006105786105738461081e565b6107ed565b90508281526020810184848401111561059057600080fd5b61059b8482856108a6565b509392505050565b6000813590506105b281610989565b92915050565b600082601f8301126105c957600080fd5b81356105d9848260208601610565565b91505092915050565b6000813590506105f1816109a0565b92915050565b60006020828403121561060957600080fd5b6000610617848285016105a3565b91505092915050565b60008060008060008060c0878903121561063957600080fd5b600087013567ffffffffffffffff81111561065357600080fd5b61065f89828a016105b8565b965050602087013567ffffffffffffffff81111561067c57600080fd5b61068889828a016105b8565b955050604061069989828a016105e2565b945050606087013567ffffffffffffffff8111156106b657600080fd5b6106c289828a016105b8565b935050608087013567ffffffffffffffff8111156106df57600080fd5b6106eb89828a016105b8565b92505060a087013567ffffffffffffffff81111561070857600080fd5b61071489828a016105b8565b9150509295509295509295565b600061072c8261084e565b6107368185610859565b93506107468185602086016108b5565b61074f81610978565b840191505092915050565b6107638161089c565b82525050565b600060c08201905081810360008301526107838189610721565b905081810360208301526107978188610721565b90506107a6604083018761075a565b81810360608301526107b88186610721565b905081810360808301526107cc8185610721565b905081810360a08301526107e08184610721565b9050979650505050505050565b6000604051905081810181811067ffffffffffffffff8211171561081457610813610949565b5b8060405250919050565b600067ffffffffffffffff82111561083957610838610949565b5b601f19601f8301169050602081019050919050565b600081519050919050565b600082825260208201905092915050565b60006108758261087c565b9050919050565b600073ffffffffffffffffffffffffffffffffffffffff82169050919050565b6000819050919050565b82818337600083830152505050565b60005b838110156108d35780820151818401526020810190506108b8565b838111156108e2576000848401525b50505050565b6000600282049050600182168061090057607f821691505b602082108114156109145761091361091a565b5b50919050565b7f4e487b7100000000000000000000000000000000000000000000000000000000600052602260045260246000fd5b7f4e487b7100000000000000000000000000000000000000000000000000000000600052604160045260246000fd5b6000601f19601f8301169050919050565b6109928161086a565b811461099d57600080fd5b50565b6109a98161089c565b81146109b457600080fd5b5056fea2646970667358221220d9ab058972cd613f48cf99a7199f6003004aea4459ae8e383a956617d50c34df64736f6c63430008000033",
  "linkReferences": {},
  "deployedLinkReferences": {}
}